{
  "_format": "hh-sol-artifact-1",
  "contractName": "ColdChain",
  "sourceName": "contracts/ColdChain.sol",
  "abi": [
    {
      "inputs": [
        {
          "internalType": "uint256",
          "name": "temperature",
          "type": "uint256"
        },
        {
          "internalType": "uint256",
          "name": "humidity",
          "type": "uint256"
        },
        {
          "internalType": "uint256",
          "name": "heatIndex",
          "type": "uint256"
        },
        {
          "internalType": "uint256",
          "name": "productId",
          "type": "uint256"
        }
      ],
      "name": "addData",
      "outputs": [],
      "stateMutability": "payable",
      "type": "function"
    },
    {
      "inputs": [
        {
          "internalType": "string",
          "name": "name",
          "type": "string"
        },
        {
          "internalType": "string",
          "name": "price",
          "type": "string"
        },
        {
          "internalType": "string",
          "name": "description",
          "type": "string"
        },
        {
          "internalType": "string",
          "name": "reqTemp",
          "type": "string"
        },
        {
          "internalType": "string",
          "name": "manufacturing",
          "type": "string"
        }
      ],
      "name": "addProduct",
      "outputs": [],
      "stateMutability": "payable",
      "type": "function"
    },
    {
      "inputs": [
        {
          "internalType": "string",
          "name": "location",
          "type": "string"
        },
        {
          "internalType": "string",
          "name": "temperature",
          "type": "string"
        },
        {
          "internalType": "string",
          "name": "humidity",
          "type": "string"
        },
        {
          "internalType": "string",
          "name": "heatIndex",
          "type": "string"
        },
        {
          "internalType": "uint256",
          "name": "workerId",
          "type": "uint256"
        },
        {
          "internalType": "uint256",
          "name": "productId",
          "type": "uint256"
        },
        {
          "internalType": "uint256",
          "name": "totalQuantity",
          "type": "uint256"
        },
        {
          "internalType": "bool",
          "name": "flag",
          "type": "bool"
        }
      ],
      "name": "addStatus",
      "outputs": [],
      "stateMutability": "payable",
      "type": "function"
    },
    {
      "inputs": [
        {
          "internalType": "uint256",
          "name": "",
          "type": "uint256"
        }
      ],
      "name": "dataList",
      "outputs": [
        {
          "internalType": "uint256",
          "name": "temperature",
          "type": "uint256"
        },
        {
          "internalType": "uint256",
          "name": "humidity",
          "type": "uint256"
        },
        {
          "internalType": "uint256",
          "name": "heatIndex",
          "type": "uint256"
        },
        {
          "internalType": "uint256",
          "name": "productId",
          "type": "uint256"
        }
      ],
      "stateMutability": "view",
      "type": "function"
    },
    {
      "inputs": [
        {
          "internalType": "uint256",
          "name": "id",
          "type": "uint256"
        }
      ],
      "name": "getProductData",
      "outputs": [
        {
          "components": [
            {
              "internalType": "uint256",
              "name": "temperature",
              "type": "uint256"
            },
            {
              "internalType": "uint256",
              "name": "humidity",
              "type": "uint256"
            },
            {
              "internalType": "uint256",
              "name": "heatIndex",
              "type": "uint256"
            },
            {
              "internalType": "uint256",
              "name": "productId",
              "type": "uint256"
            }
          ],
          "internalType": "struct ColdChain.Data[]",
          "name": "",
          "type": "tuple[]"
        }
      ],
      "stateMutability": "view",
      "type": "function"
    },
    {
      "inputs": [
        {
          "internalType": "uint256",
          "name": "id",
          "type": "uint256"
        }
      ],
      "name": "getProductStatus",
      "outputs": [
        {
          "components": [
            {
              "internalType": "string",
              "name": "location",
              "type": "string"
            },
            {
              "internalType": "uint256",
              "name": "timestamp",
              "type": "uint256"
            },
            {
              "internalType": "string",
              "name": "temperature",
              "type": "string"
            },
            {
              "internalType": "string",
              "name": "humidity",
              "type": "string"
            },
            {
              "internalType": "string",
              "name": "heatIndex",
              "type": "string"
            },
            {
              "internalType": "uint256",
              "name": "workerId",
              "type": "uint256"
            },
            {
              "internalType": "uint256",
              "name": "productId",
              "type": "uint256"
            },
            {
              "internalType": "uint256",
              "name": "totalQuantity",
              "type": "uint256"
            },
            {
              "internalType": "bool",
              "name": "flag",
              "type": "bool"
            }
          ],
          "internalType": "struct ColdChain.Status[]",
          "name": "",
          "type": "tuple[]"
        }
      ],
      "stateMutability": "view",
      "type": "function"
    },
    {
      "inputs": [],
      "name": "getProducts",
      "outputs": [
        {
          "components": [
            {
              "internalType": "uint256",
              "name": "id",
              "type": "uint256"
            },
            {
              "internalType": "string",
              "name": "name",
              "type": "string"
            },
            {
              "internalType": "string",
              "name": "price",
              "type": "string"
            },
            {
              "internalType": "string",
              "name": "description",
              "type": "string"
            },
            {
              "internalType": "string",
              "name": "reqTemp",
              "type": "string"
            },
            {
              "internalType": "string",
              "name": "manufacturing",
              "type": "string"
            },
            {
              "internalType": "uint256",
              "name": "timestamp",
              "type": "uint256"
            }
          ],
          "internalType": "struct ColdChain.Product[]",
          "name": "",
          "type": "tuple[]"
        }
      ],
      "stateMutability": "view",
      "type": "function"
    },
    {
      "inputs": [],
      "name": "getWorkersList",
      "outputs": [
        {
          "components": [
            {
              "internalType": "string",
              "name": "name",
              "type": "string"
            },
            {
              "internalType": "uint256",
              "name": "id",
              "type": "uint256"
            },
            {
              "internalType": "uint256",
              "name": "timestamp",
              "type": "uint256"
            }
          ],
          "internalType": "struct ColdChain.Worker[]",
          "name": "",
          "type": "tuple[]"
        }
      ],
      "stateMutability": "view",
      "type": "function"
    },
    {
      "inputs": [
        {
          "internalType": "uint256",
          "name": "",
          "type": "uint256"
        }
      ],
      "name": "productList",
      "outputs": [
        {
          "internalType": "uint256",
          "name": "id",
          "type": "uint256"
        },
        {
          "internalType": "string",
          "name": "name",
          "type": "string"
        },
        {
          "internalType": "string",
          "name": "price",
          "type": "string"
        },
        {
          "internalType": "string",
          "name": "description",
          "type": "string"
        },
        {
          "internalType": "string",
          "name": "reqTemp",
          "type": "string"
        },
        {
          "internalType": "string",
          "name": "manufacturing",
          "type": "string"
        },
        {
          "internalType": "uint256",
          "name": "timestamp",
          "type": "uint256"
        }
      ],
      "stateMutability": "view",
      "type": "function"
    },
    {
      "inputs": [
        {
          "internalType": "uint256",
          "name": "",
          "type": "uint256"
        }
      ],
      "name": "productStatusList",
      "outputs": [
        {
          "internalType": "string",
          "name": "location",
          "type": "string"
        },
        {
          "internalType": "uint256",
          "name": "timestamp",
          "type": "uint256"
        },
        {
          "internalType": "string",
          "name": "temperature",
          "type": "string"
        },
        {
          "internalType": "string",
          "name": "humidity",
          "type": "string"
        },
        {
          "internalType": "string",
          "name": "heatIndex",
          "type": "string"
        },
        {
          "internalType": "uint256",
          "name": "workerId",
          "type": "uint256"
        },
        {
          "internalType": "uint256",
          "name": "productId",
          "type": "uint256"
        },
        {
          "internalType": "uint256",
          "name": "totalQuantity",
          "type": "uint256"
        },
        {
          "internalType": "bool",
          "name": "flag",
          "type": "bool"
        }
      ],
      "stateMutability": "view",
      "type": "function"
    },
    {
      "inputs": [
        {
          "internalType": "string",
          "name": "name",
          "type": "string"
        }
      ],
      "name": "setWorker",
      "outputs": [],
      "stateMutability": "payable",
      "type": "function"
    },
    {
      "inputs": [
        {
          "internalType": "uint256",
          "name": "",
          "type": "uint256"
        }
      ],
      "name": "workerList",
      "outputs": [
        {
          "internalType": "string",
          "name": "name",
          "type": "string"
        },
        {
          "internalType": "uint256",
          "name": "id",
          "type": "uint256"
        },
        {
          "internalType": "uint256",
          "name": "timestamp",
          "type": "uint256"
        }
      ],
      "stateMutability": "view",
      "type": "function"
    }
  ],
  "bytecode": "0x60806040526000600155600060065534801561001a57600080fd5b506125db8061002a6000396000f3fe6080604052600436106100a75760003560e01c8063af4a74cf11610064578063af4a74cf146101bf578063c29b2f20146101ff578063d6d0be9f1461022a578063d8c09da114610267578063ee2ab829146102ac578063ef6da8d4146102d7576100a7565b806313f6b1bb146100ac5780632a4994fc146100e95780634d432c1d14610105578063528c87d214610144578063540bda5f146101875780638c284015146101a3575b600080fd5b3480156100b857600080fd5b506100d360048036038101906100ce9190611acc565b6102f3565b6040516100e09190612092565b60405180910390f35b61010360048036038101906100fe919061188a565b6105f1565b005b34801561011157600080fd5b5061012c60048036038101906101279190611acc565b6106d7565b60405161013b9392919061217f565b60405180910390f35b34801561015057600080fd5b5061016b60048036038101906101669190611acc565b610799565b60405161017e97969594939291906121bd565b60405180910390f35b6101a1600480360381019061019c9190611af5565b610a93565b005b6101bd60048036038101906101b891906119ba565b610b7c565b005b3480156101cb57600080fd5b506101e660048036038101906101e19190611acc565b610db4565b6040516101f6949392919061224f565b60405180910390f35b34801561020b57600080fd5b50610214610df4565b6040516102219190612070565b60405180910390f35b34801561023657600080fd5b50610251600480360381019061024c9190611acc565b611141565b60405161025e919061204e565b60405180910390f35b34801561027357600080fd5b5061028e60048036038101906102899190611acc565b6111db565b6040516102a3999897969594939291906120d6565b60405180910390f35b3480156102b857600080fd5b506102c1611466565b6040516102ce91906120b4565b60405180910390f35b6102f160048036038101906102ec91906118cb565b61156b565b005b606060056000838152602001908152602001600020805480602002602001604051908101604052809291908181526020016000905b828210156105e657838290600052602060002090600902016040518061012001604052908160008201805461035c9061245e565b80601f01602080910402602001604051908101604052809291908181526020018280546103889061245e565b80156103d55780601f106103aa576101008083540402835291602001916103d5565b820191906000526020600020905b8154815290600101906020018083116103b857829003601f168201915b50505050508152602001600182015481526020016002820180546103f89061245e565b80601f01602080910402602001604051908101604052809291908181526020018280546104249061245e565b80156104715780601f1061044657610100808354040283529160200191610471565b820191906000526020600020905b81548152906001019060200180831161045457829003601f168201915b5050505050815260200160038201805461048a9061245e565b80601f01602080910402602001604051908101604052809291908181526020018280546104b69061245e565b80156105035780601f106104d857610100808354040283529160200191610503565b820191906000526020600020905b8154815290600101906020018083116104e657829003601f168201915b5050505050815260200160048201805461051c9061245e565b80601f01602080910402602001604051908101604052809291908181526020018280546105489061245e565b80156105955780601f1061056a57610100808354040283529160200191610595565b820191906000526020600020905b81548152906001019060200180831161057857829003601f168201915b505050505081526020016005820154815260200160068201548152602001600782015481526020016008820160009054906101000a900460ff16151515158152505081526020019060010190610328565b505050509050919050565b600060405180606001604052808381526020016006548152602001428152509050806008600060065481526020019081526020016000206000820151816000019080519060200190610644929190611755565b506020820151816001015560408201518160020155905050600781908060018154018082558091505060019003906000526020600020906003020160009091909190915060008201518160000190805190602001906106a4929190611755565b5060208201518160010155604082015181600201555050600660008154809291906106ce90612490565b91905055505050565b600781815481106106e757600080fd5b906000526020600020906003020160009150905080600001805461070a9061245e565b80601f01602080910402602001604051908101604052809291908181526020018280546107369061245e565b80156107835780601f1061075857610100808354040283529160200191610783565b820191906000526020600020905b81548152906001019060200180831161076657829003601f168201915b5050505050908060010154908060020154905083565b600281815481106107a957600080fd5b90600052602060002090600702016000915090508060000154908060010180546107d29061245e565b80601f01602080910402602001604051908101604052809291908181526020018280546107fe9061245e565b801561084b5780601f106108205761010080835404028352916020019161084b565b820191906000526020600020905b81548152906001019060200180831161082e57829003601f168201915b5050505050908060020180546108609061245e565b80601f016020809104026020016040519081016040528092919081815260200182805461088c9061245e565b80156108d95780601f106108ae576101008083540402835291602001916108d9565b820191906000526020600020905b8154815290600101906020018083116108bc57829003601f168201915b5050505050908060030180546108ee9061245e565b80601f016020809104026020016040519081016040528092919081815260200182805461091a9061245e565b80156109675780601f1061093c57610100808354040283529160200191610967565b820191906000526020600020905b81548152906001019060200180831161094a57829003601f168201915b50505050509080600401805461097c9061245e565b80601f01602080910402602001604051908101604052809291908181526020018280546109a89061245e565b80156109f55780601f106109ca576101008083540402835291602001916109f5565b820191906000526020600020905b8154815290600101906020018083116109d857829003601f168201915b505050505090806005018054610a0a9061245e565b80601f0160208091040260200160405190810160405280929190818152602001828054610a369061245e565b8015610a835780601f10610a5857610100808354040283529160200191610a83565b820191906000526020600020905b815481529060010190602001808311610a6657829003601f168201915b5050505050908060060154905087565b60006040518060800160405280868152602001858152602001848152602001838152509050600a600083815260200190815260200160002081908060018154018082558091505060019003906000526020600020906004020160009091909190915060008201518160000155602082015181600101556040820151816002015560608201518160030155505060098190806001815401808255809150506001900390600052602060002090600402016000909190919091506000820151816000015560208201518160010155604082015181600201556060820151816003015550505050505050565b60006040518061012001604052808a81526020014281526020018981526020018881526020018781526020018681526020018581526020018481526020018315158152509050600560008581526020019081526020016000208190806001815401808255809150506001900390600052602060002090600902016000909190919091506000820151816000019080519060200190610c1b929190611755565b50602082015181600101556040820151816002019080519060200190610c42929190611755565b506060820151816003019080519060200190610c5f929190611755565b506080820151816004019080519060200190610c7c929190611755565b5060a0820151816005015560c0820151816006015560e082015181600701556101008201518160080160006101000a81548160ff021916908315150217905550505060048190806001815401808255809150506001900390600052602060002090600902016000909190919091506000820151816000019080519060200190610d06929190611755565b50602082015181600101556040820151816002019080519060200190610d2d929190611755565b506060820151816003019080519060200190610d4a929190611755565b506080820151816004019080519060200190610d67929190611755565b5060a0820151816005015560c0820151816006015560e082015181600701556101008201518160080160006101000a81548160ff0219169083151502179055505050505050505050505050565b60098181548110610dc457600080fd5b90600052602060002090600402016000915090508060000154908060010154908060020154908060030154905084565b60606002805480602002602001604051908101604052809291908181526020016000905b8282101561113857838290600052602060002090600702016040518060e001604052908160008201548152602001600182018054610e559061245e565b80601f0160208091040260200160405190810160405280929190818152602001828054610e819061245e565b8015610ece5780601f10610ea357610100808354040283529160200191610ece565b820191906000526020600020905b815481529060010190602001808311610eb157829003601f168201915b50505050508152602001600282018054610ee79061245e565b80601f0160208091040260200160405190810160405280929190818152602001828054610f139061245e565b8015610f605780601f10610f3557610100808354040283529160200191610f60565b820191906000526020600020905b815481529060010190602001808311610f4357829003601f168201915b50505050508152602001600382018054610f799061245e565b80601f0160208091040260200160405190810160405280929190818152602001828054610fa59061245e565b8015610ff25780601f10610fc757610100808354040283529160200191610ff2565b820191906000526020600020905b815481529060010190602001808311610fd557829003601f168201915b5050505050815260200160048201805461100b9061245e565b80601f01602080910402602001604051908101604052809291908181526020018280546110379061245e565b80156110845780601f1061105957610100808354040283529160200191611084565b820191906000526020600020905b81548152906001019060200180831161106757829003601f168201915b5050505050815260200160058201805461109d9061245e565b80601f01602080910402602001604051908101604052809291908181526020018280546110c99061245e565b80156111165780601f106110eb57610100808354040283529160200191611116565b820191906000526020600020905b8154815290600101906020018083116110f957829003601f168201915b5050505050815260200160068201548152505081526020019060010190610e18565b50505050905090565b6060600a6000838152602001908152602001600020805480602002602001604051908101604052809291908181526020016000905b828210156111d0578382906000526020600020906004020160405180608001604052908160008201548152602001600182015481526020016002820154815260200160038201548152505081526020019060010190611176565b505050509050919050565b600481815481106111eb57600080fd5b906000526020600020906009020160009150905080600001805461120e9061245e565b80601f016020809104026020016040519081016040528092919081815260200182805461123a9061245e565b80156112875780601f1061125c57610100808354040283529160200191611287565b820191906000526020600020905b81548152906001019060200180831161126a57829003601f168201915b5050505050908060010154908060020180546112a29061245e565b80601f01602080910402602001604051908101604052809291908181526020018280546112ce9061245e565b801561131b5780601f106112f05761010080835404028352916020019161131b565b820191906000526020600020905b8154815290600101906020018083116112fe57829003601f168201915b5050505050908060030180546113309061245e565b80601f016020809104026020016040519081016040528092919081815260200182805461135c9061245e565b80156113a95780601f1061137e576101008083540402835291602001916113a9565b820191906000526020600020905b81548152906001019060200180831161138c57829003601f168201915b5050505050908060040180546113be9061245e565b80601f01602080910402602001604051908101604052809291908181526020018280546113ea9061245e565b80156114375780601f1061140c57610100808354040283529160200191611437565b820191906000526020600020905b81548152906001019060200180831161141a57829003601f168201915b5050505050908060050154908060060154908060070154908060080160009054906101000a900460ff16905089565b60606007805480602002602001604051908101604052809291908181526020016000905b8282101561156257838290600052602060002090600302016040518060600160405290816000820180546114bd9061245e565b80601f01602080910402602001604051908101604052809291908181526020018280546114e99061245e565b80156115365780601f1061150b57610100808354040283529160200191611536565b820191906000526020600020905b81548152906001019060200180831161151957829003601f168201915b50505050508152602001600182015481526020016002820154815250508152602001906001019061148a565b50505050905090565b60006040518060e001604052806001548152602001878152602001868152602001858152602001848152602001838152602001428152509050806003600060015481526020019081526020016000206000820151816000015560208201518160010190805190602001906115e0929190611755565b5060408201518160020190805190602001906115fd929190611755565b50606082015181600301908051906020019061161a929190611755565b506080820151816004019080519060200190611637929190611755565b5060a0820151816005019080519060200190611654929190611755565b5060c0820151816006015590505060028190806001815401808255809150506001900390600052602060002090600702016000909190919091506000820151816000015560208201518160010190805190602001906116b4929190611755565b5060408201518160020190805190602001906116d1929190611755565b5060608201518160030190805190602001906116ee929190611755565b50608082015181600401908051906020019061170b929190611755565b5060a0820151816005019080519060200190611728929190611755565b5060c0820151816006015550506001600081548092919061174890612490565b9190505550505050505050565b8280546117619061245e565b90600052602060002090601f01602090048101928261178357600085556117ca565b82601f1061179c57805160ff19168380011785556117ca565b828001600101855582156117ca579182015b828111156117c95782518255916020019190600101906117ae565b5b5090506117d791906117db565b5090565b5b808211156117f45760008160009055506001016117dc565b5090565b600061180b611806846122c5565b612294565b90508281526020810184848401111561182357600080fd5b61182e84828561241c565b509392505050565b60008135905061184581612577565b92915050565b600082601f83011261185c57600080fd5b813561186c8482602086016117f8565b91505092915050565b6000813590506118848161258e565b92915050565b60006020828403121561189c57600080fd5b600082013567ffffffffffffffff8111156118b657600080fd5b6118c28482850161184b565b91505092915050565b600080600080600060a086880312156118e357600080fd5b600086013567ffffffffffffffff8111156118fd57600080fd5b6119098882890161184b565b955050602086013567ffffffffffffffff81111561192657600080fd5b6119328882890161184b565b945050604086013567ffffffffffffffff81111561194f57600080fd5b61195b8882890161184b565b935050606086013567ffffffffffffffff81111561197857600080fd5b6119848882890161184b565b925050608086013567ffffffffffffffff8111156119a157600080fd5b6119ad8882890161184b565b9150509295509295909350565b600080600080600080600080610100898b0312156119d757600080fd5b600089013567ffffffffffffffff8111156119f157600080fd5b6119fd8b828c0161184b565b985050602089013567ffffffffffffffff811115611a1a57600080fd5b611a268b828c0161184b565b975050604089013567ffffffffffffffff811115611a4357600080fd5b611a4f8b828c0161184b565b965050606089013567ffffffffffffffff811115611a6c57600080fd5b611a788b828c0161184b565b9550506080611a898b828c01611875565b94505060a0611a9a8b828c01611875565b93505060c0611aab8b828c01611875565b92505060e0611abc8b828c01611836565b9150509295985092959890939650565b600060208284031215611ade57600080fd5b6000611aec84828501611875565b91505092915050565b60008060008060808587031215611b0b57600080fd5b6000611b1987828801611875565b9450506020611b2a87828801611875565b9350506040611b3b87828801611875565b9250506060611b4c87828801611875565b91505092959194509250565b6000611b648383611df9565b60808301905092915050565b6000611b7c8383611e4e565b905092915050565b6000611b908383611f06565b905092915050565b6000611ba48383611fe0565b905092915050565b6000611bb782612335565b611bc181856123a0565b9350611bcc836122f5565b8060005b83811015611bfd578151611be48882611b58565b9750611bef8361236c565b925050600181019050611bd0565b5085935050505092915050565b6000611c1582612340565b611c1f81856123b1565b935083602082028501611c3185612305565b8060005b85811015611c6d5784840389528151611c4e8582611b70565b9450611c5983612379565b925060208a01995050600181019050611c35565b50829750879550505050505092915050565b6000611c8a8261234b565b611c9481856123c2565b935083602082028501611ca685612315565b8060005b85811015611ce25784840389528151611cc38582611b84565b9450611cce83612386565b925060208a01995050600181019050611caa565b50829750879550505050505092915050565b6000611cff82612356565b611d0981856123d3565b935083602082028501611d1b85612325565b8060005b85811015611d575784840389528151611d388582611b98565b9450611d4383612393565b925060208a01995050600181019050611d1f565b50829750879550505050505092915050565b611d7281612406565b82525050565b611d8181612406565b82525050565b6000611d9282612361565b611d9c81856123e4565b9350611dac81856020860161242b565b611db581612566565b840191505092915050565b6000611dcb82612361565b611dd581856123f5565b9350611de581856020860161242b565b611dee81612566565b840191505092915050565b608082016000820151611e0f6000850182612030565b506020820151611e226020850182612030565b506040820151611e356040850182612030565b506060820151611e486060850182612030565b50505050565b600060e083016000830151611e666000860182612030565b5060208301518482036020860152611e7e8282611d87565b91505060408301518482036040860152611e988282611d87565b91505060608301518482036060860152611eb28282611d87565b91505060808301518482036080860152611ecc8282611d87565b91505060a083015184820360a0860152611ee68282611d87565b91505060c0830151611efb60c0860182612030565b508091505092915050565b6000610120830160008301518482036000860152611f248282611d87565b9150506020830151611f396020860182612030565b5060408301518482036040860152611f518282611d87565b91505060608301518482036060860152611f6b8282611d87565b91505060808301518482036080860152611f858282611d87565b91505060a0830151611f9a60a0860182612030565b5060c0830151611fad60c0860182612030565b5060e0830151611fc060e0860182612030565b50610100830151611fd5610100860182611d69565b508091505092915050565b60006060830160008301518482036000860152611ffd8282611d87565b91505060208301516120126020860182612030565b5060408301516120256040860182612030565b508091505092915050565b61203981612412565b82525050565b61204881612412565b82525050565b600060208201905081810360008301526120688184611bac565b905092915050565b6000602082019050818103600083015261208a8184611c0a565b905092915050565b600060208201905081810360008301526120ac8184611c7f565b905092915050565b600060208201905081810360008301526120ce8184611cf4565b905092915050565b60006101208201905081810360008301526120f1818c611dc0565b9050612100602083018b61203f565b8181036040830152612112818a611dc0565b905081810360608301526121268189611dc0565b9050818103608083015261213a8188611dc0565b905061214960a083018761203f565b61215660c083018661203f565b61216360e083018561203f565b612171610100830184611d78565b9a9950505050505050505050565b600060608201905081810360008301526121998186611dc0565b90506121a8602083018561203f565b6121b5604083018461203f565b949350505050565b600060e0820190506121d2600083018a61203f565b81810360208301526121e48189611dc0565b905081810360408301526121f88188611dc0565b9050818103606083015261220c8187611dc0565b905081810360808301526122208186611dc0565b905081810360a08301526122348185611dc0565b905061224360c083018461203f565b98975050505050505050565b6000608082019050612264600083018761203f565b612271602083018661203f565b61227e604083018561203f565b61228b606083018461203f565b95945050505050565b6000604051905081810181811067ffffffffffffffff821117156122bb576122ba612537565b5b8060405250919050565b600067ffffffffffffffff8211156122e0576122df612537565b5b601f19601f8301169050602081019050919050565b6000819050602082019050919050565b6000819050602082019050919050565b6000819050602082019050919050565b6000819050602082019050919050565b600081519050919050565b600081519050919050565b600081519050919050565b600081519050919050565b600081519050919050565b6000602082019050919050565b6000602082019050919050565b6000602082019050919050565b6000602082019050919050565b600082825260208201905092915050565b600082825260208201905092915050565b600082825260208201905092915050565b600082825260208201905092915050565b600082825260208201905092915050565b600082825260208201905092915050565b60008115159050919050565b6000819050919050565b82818337600083830152505050565b60005b8381101561244957808201518184015260208101905061242e565b83811115612458576000848401525b50505050565b6000600282049050600182168061247657607f821691505b6020821081141561248a57612489612508565b5b50919050565b600061249b82612412565b91507fffffffffffffffffffffffffffffffffffffffffffffffffffffffffffffffff8214156124ce576124cd6124d9565b5b600182019050919050565b7f4e487b7100000000000000000000000000000000000000000000000000000000600052601160045260246000fd5b7f4e487b7100000000000000000000000000000000000000000000000000000000600052602260045260246000fd5b7f4e487b7100000000000000000000000000000000000000000000000000000000600052604160045260246000fd5b6000601f19601f8301169050919050565b61258081612406565b811461258b57600080fd5b50565b61259781612412565b81146125a257600080fd5b5056fea264697066735822122082bcf8570c932f7b2e1e8fb91bee47c1394bad5c75c513717306d7d8d20e362264736f6c63430008000033",
  "linkReferences": {},
  "deployedLinkReferences": {}
}